{
  "_format": "hh-sol-artifact-1",
  "contractName": "CrowdFunding",
  "sourceName": "contracts/CrowdFunding.sol",
  "abi": [
    {
      "anonymous": false,
      "inputs": [
        {
          "indexed": false,
          "internalType": "address",
          "name": "contractAddress",
          "type": "address"
        },
        {
          "indexed": false,
          "internalType": "address",
          "name": "projectStarter",
          "type": "address"
        },
        {
          "indexed": false,
          "internalType": "string",
          "name": "projectTitle",
          "type": "string"
        },
        {
          "indexed": false,
          "internalType": "string",
          "name": "projectDesc",
          "type": "string"
        },
        {
          "indexed": false,
          "internalType": "uint256",
          "name": "deadline",
          "type": "uint256"
        },
        {
          "indexed": false,
          "internalType": "uint256",
          "name": "goalAmount",
          "type": "uint256"
        }
      ],
      "name": "ProjectStarted",
      "type": "event"
    },
    {
      "inputs": [],
      "name": "returnAllProjects",
      "outputs": [
        {
          "internalType": "contract Project[]",
          "name": "",
          "type": "address[]"
        }
      ],
      "stateMutability": "view",
      "type": "function"
    },
    {
      "inputs": [
        {
          "internalType": "string",
          "name": "title",
          "type": "string"
        },
        {
          "internalType": "string",
          "name": "description",
          "type": "string"
        },
        {
          "internalType": "uint256",
          "name": "durationInDays",
          "type": "uint256"
        },
        {
          "internalType": "uint256",
          "name": "amountToRaise",
          "type": "uint256"
        }
      ],
      "name": "startProject",
      "outputs": [],
      "stateMutability": "nonpayable",
      "type": "function"
    }
  ],
  "bytecode": "0x608060405234801561001057600080fd5b50612063806100206000396000f3fe60806040523480156200001157600080fd5b50600436106200003a5760003560e01c806385b6e28e146200003f578063a24a2d161462000061575b600080fd5b6200004962000081565b6040516200005891906200040b565b60405180910390f35b6200007f6004803603810190620000799190620004e2565b62000111565b005b606060008054806020026020016040519081016040528092919081815260200182805480156200010757602002820191906000526020600020905b8160009054906101000a900473ffffffffffffffffffffffffffffffffffffffff1673ffffffffffffffffffffffffffffffffffffffff1681526020019060010190808311620000bc575b5050505050905090565b60006200013f6200012f62015180856200023e90919063ffffffff16565b426200028990919063ffffffff16565b90506000338888888886886040516200015890620002b5565b6200016a979695949392919062000634565b604051809103906000f08015801562000187573d6000803e3d6000fd5b5090506000819080600181540180825580915050600190039060005260206000200160009091909190916101000a81548173ffffffffffffffffffffffffffffffffffffffff021916908373ffffffffffffffffffffffffffffffffffffffff1602179055507f6218c120ad6d836da0bfe4d4c44c8375356514fce6ae39ecdcd483fad6056e6681338a8a8a8a888a6040516200022c989796959493929190620006c8565b60405180910390a15050505050505050565b600080830362000252576000905062000283565b818362000260919062000776565b9050818382620002719190620007f0565b1462000282576200028162000828565b5b5b92915050565b6000818362000299919062000857565b905082811015620002af57620002ae62000828565b5b92915050565b61179b806200089383390190565b600081519050919050565b600082825260208201905092915050565b6000819050602082019050919050565b600073ffffffffffffffffffffffffffffffffffffffff82169050919050565b6000819050919050565b60006200033a620003346200032e84620002ef565b6200030f565b620002ef565b9050919050565b60006200034e8262000319565b9050919050565b6000620003628262000341565b9050919050565b620003748162000355565b82525050565b600062000388838362000369565b60208301905092915050565b6000602082019050919050565b6000620003ae82620002c3565b620003ba8185620002ce565b9350620003c783620002df565b8060005b83811015620003fe578151620003e288826200037a565b9750620003ef8362000394565b925050600181019050620003cb565b5085935050505092915050565b60006020820190508181036000830152620004278184620003a1565b905092915050565b600080fd5b600080fd5b600080fd5b600080fd5b600080fd5b60008083601f84011262000461576200046062000439565b5b8235905067ffffffffffffffff8111156200048157620004806200043e565b5b602083019150836001820283011115620004a0576200049f62000443565b5b9250929050565b6000819050919050565b620004bc81620004a7565b8114620004c857600080fd5b50565b600081359050620004dc81620004b1565b92915050565b600080600080600080608087890312156200050257620005016200042f565b5b600087013567ffffffffffffffff81111562000523576200052262000434565b5b6200053189828a0162000448565b9650965050602087013567ffffffffffffffff81111562000557576200055662000434565b5b6200056589828a0162000448565b945094505060406200057a89828a01620004cb565b92505060606200058d89828a01620004cb565b9150509295509295509295565b6000620005a782620002ef565b9050919050565b620005b9816200059a565b82525050565b600082825260208201905092915050565b82818337600083830152505050565b6000601f19601f8301169050919050565b6000620005fe8385620005bf565b93506200060d838584620005d0565b6200061883620005df565b840190509392505050565b6200062e81620004a7565b82525050565b600060a0820190506200064b600083018a620005ae565b81810360208301526200066081888a620005f0565b9050818103604083015262000677818688620005f0565b905062000688606083018562000623565b62000697608083018462000623565b98975050505050505050565b6000620006b082620002ef565b9050919050565b620006c281620006a3565b82525050565b600060c082019050620006df600083018b620006b7565b620006ee602083018a620006b7565b81810360408301526200070381888a620005f0565b905081810360608301526200071a818688620005f0565b90506200072b608083018562000623565b6200073a60a083018462000623565b9998505050505050505050565b7f4e487b7100000000000000000000000000000000000000000000000000000000600052601160045260246000fd5b60006200078382620004a7565b91506200079083620004a7565b9250828202620007a081620004a7565b91508282048414831517620007ba57620007b962000747565b5b5092915050565b7f4e487b7100000000000000000000000000000000000000000000000000000000600052601260045260246000fd5b6000620007fd82620004a7565b91506200080a83620004a7565b9250826200081d576200081c620007c1565b5b828204905092915050565b7f4e487b7100000000000000000000000000000000000000000000000000000000600052600160045260246000fd5b60006200086482620004a7565b91506200087183620004a7565b92508282019050808211156200088c576200088b62000747565b5b9291505056fe60806040526000600760006101000a81548160ff021916908360028111156200002d576200002c620000ea565b5b02179055503480156200003f57600080fd5b506040516200179b3803806200179b83398181016040528101906200006591906200034c565b846000806101000a81548173ffffffffffffffffffffffffffffffffffffffff021916908373ffffffffffffffffffffffffffffffffffffffff1602179055508360059081620000b6919062000653565b508260069081620000c8919062000653565b508060018190555081600481905550600060038190555050505050506200073a565b7f4e487b7100000000000000000000000000000000000000000000000000000000600052602160045260246000fd5b6000604051905090565b600080fd5b600080fd5b600073ffffffffffffffffffffffffffffffffffffffff82169050919050565b60006200015a826200012d565b9050919050565b6200016c816200014d565b81146200017857600080fd5b50565b6000815190506200018c8162000161565b92915050565b600080fd5b600080fd5b6000601f19601f8301169050919050565b7f4e487b7100000000000000000000000000000000000000000000000000000000600052604160045260246000fd5b620001e7826200019c565b810181811067ffffffffffffffff82111715620002095762000208620001ad565b5b80604052505050565b60006200021e62000119565b90506200022c8282620001dc565b919050565b600067ffffffffffffffff8211156200024f576200024e620001ad565b5b6200025a826200019c565b9050602081019050919050565b60005b83811015620002875780820151818401526020810190506200026a565b60008484015250505050565b6000620002aa620002a48462000231565b62000212565b905082815260208101848484011115620002c957620002c862000197565b5b620002d684828562000267565b509392505050565b600082601f830112620002f657620002f562000192565b5b81516200030884826020860162000293565b91505092915050565b6000819050919050565b620003268162000311565b81146200033257600080fd5b50565b60008151905062000346816200031b565b92915050565b600080600080600060a086880312156200036b576200036a62000123565b5b60006200037b888289016200017b565b955050602086015167ffffffffffffffff8111156200039f576200039e62000128565b5b620003ad88828901620002de565b945050604086015167ffffffffffffffff811115620003d157620003d062000128565b5b620003df88828901620002de565b9350506060620003f28882890162000335565b9250506080620004058882890162000335565b9150509295509295909350565b600081519050919050565b7f4e487b7100000000000000000000000000000000000000000000000000000000600052602260045260246000fd5b600060028204905060018216806200046557607f821691505b6020821081036200047b576200047a6200041d565b5b50919050565b60008190508160005260206000209050919050565b60006020601f8301049050919050565b600082821b905092915050565b600060088302620004e57fffffffffffffffffffffffffffffffffffffffffffffffffffffffffffffffff82620004a6565b620004f18683620004a6565b95508019841693508086168417925050509392505050565b6000819050919050565b6000620005346200052e620005288462000311565b62000509565b62000311565b9050919050565b6000819050919050565b620005508362000513565b620005686200055f826200053b565b848454620004b3565b825550505050565b600090565b6200057f62000570565b6200058c81848462000545565b505050565b5b81811015620005b457620005a860008262000575565b60018101905062000592565b5050565b601f8211156200060357620005cd8162000481565b620005d88462000496565b81016020851015620005e8578190505b62000600620005f78562000496565b83018262000591565b50505b505050565b600082821c905092915050565b6000620006286000198460080262000608565b1980831691505092915050565b600062000643838362000615565b9150826002028217905092915050565b6200065e8262000412565b67ffffffffffffffff8111156200067a5762000679620001ad565b5b6200068682546200044c565b62000693828285620005b8565b600060209050601f831160018114620006cb5760008415620006b6578287015190505b620006c2858262000635565b86555062000732565b601f198416620006db8662000481565b60005b828110156200070557848901518255600182019150602085019450602081019050620006de565b8683101562000725578489015162000721601f89168262000615565b8355505b6001600288020188555050505b505050505050565b611051806200074a6000396000f3fe6080604052600436106100c25760003560e01c80637284e4161161007f578063c19d93fb11610059578063c19d93fb14610248578063ce845d1d14610273578063d7bb99ba1461029e578063fbbf93a0146102a8576100c2565b80637284e416146101db57806386f3258614610206578063b2d5ae441461021d576100c2565b806302d05d3f146100c75780630785001c146100f257806337f944cc1461011d57806342e94c90146101485780634a79d50c146101855780634c4cea5a146101b0575b600080fd5b3480156100d357600080fd5b506100dc6102d9565b6040516100e99190610b7f565b60405180910390f35b3480156100fe57600080fd5b506101076102fd565b6040516101149190610bb3565b60405180910390f35b34801561012957600080fd5b50610132610303565b60405161013f9190610bb3565b60405180910390f35b34801561015457600080fd5b5061016f600480360381019061016a9190610c11565b610309565b60405161017c9190610bb3565b60405180910390f35b34801561019157600080fd5b5061019a610321565b6040516101a79190610cce565b60405180910390f35b3480156101bc57600080fd5b506101c56103af565b6040516101d29190610bb3565b60405180910390f35b3480156101e757600080fd5b506101f06103b5565b6040516101fd9190610cce565b60405180910390f35b34801561021257600080fd5b5061021b610443565b005b34801561022957600080fd5b506102326104c7565b60405161023f9190610d0b565b60405180910390f35b34801561025457600080fd5b5061025d61068b565b60405161026a9190610d9d565b60405180910390f35b34801561027f57600080fd5b5061028861069e565b6040516102959190610bb3565b60405180910390f35b6102a66106a4565b005b3480156102b457600080fd5b506102bd610835565b6040516102d09796959493929190610db8565b60405180910390f35b60008054906101000a900473ffffffffffffffffffffffffffffffffffffffff1681565b60015481565b60045481565b60086020528060005260406000206000915090505481565b6005805461032e90610e64565b80601f016020809104026020016040519081016040528092919081815260200182805461035a90610e64565b80156103a75780601f1061037c576101008083540402835291602001916103a7565b820191906000526020600020905b81548152906001019060200180831161038a57829003601f168201915b505050505081565b60025481565b600680546103c290610e64565b80601f01602080910402602001604051908101604052809291908181526020018280546103ee90610e64565b801561043b5780601f106104105761010080835404028352916020019161043b565b820191906000526020600020905b81548152906001019060200180831161041e57829003601f168201915b505050505081565b60015460035410610487576002600760006101000a81548160ff0219169083600281111561047457610473610d26565b5b02179055506104816109a7565b506104be565b6004544211156104bd576001600760006101000a81548160ff021916908360028111156104b7576104b6610d26565b5b02179055505b5b42600281905550565b600060018060028111156104de576104dd610d26565b5b600760009054906101000a900460ff166002811115610500576104ff610d26565b5b1461050a57600080fd5b6000600860003373ffffffffffffffffffffffffffffffffffffffff1673ffffffffffffffffffffffffffffffffffffffff168152602001908152602001600020541161055657600080fd5b6000600860003373ffffffffffffffffffffffffffffffffffffffff1673ffffffffffffffffffffffffffffffffffffffff1681526020019081526020016000205490506000600860003373ffffffffffffffffffffffffffffffffffffffff1673ffffffffffffffffffffffffffffffffffffffff168152602001908152602001600020819055503373ffffffffffffffffffffffffffffffffffffffff166108fc829081150290604051600060405180830381858888f193505050506106665780600860003373ffffffffffffffffffffffffffffffffffffffff1673ffffffffffffffffffffffffffffffffffffffff168152602001908152602001600020819055506000925050610687565b61067b81600354610af090919063ffffffff16565b60038190555060019250505b5090565b600760009054906101000a900460ff1681565b60035481565b60008060028111156106b9576106b8610d26565b5b600760009054906101000a900460ff1660028111156106db576106da610d26565b5b146106e557600080fd5b60008054906101000a900473ffffffffffffffffffffffffffffffffffffffff1673ffffffffffffffffffffffffffffffffffffffff163373ffffffffffffffffffffffffffffffffffffffff160361073d57600080fd5b61078f34600860003373ffffffffffffffffffffffffffffffffffffffff1673ffffffffffffffffffffffffffffffffffffffff16815260200190815260200160002054610b1790919063ffffffff16565b600860003373ffffffffffffffffffffffffffffffffffffffff1673ffffffffffffffffffffffffffffffffffffffff168152602001908152602001600020819055506107e734600354610b1790919063ffffffff16565b6003819055507f5cdc4ab8d637538ead6cc1904d4160343656c8c82bd266635cfd31ac008fffe0333460035460405161082293929190610ea4565b60405180910390a1610832610443565b50565b600060608060008060008060008054906101000a900473ffffffffffffffffffffffffffffffffffffffff1696506005805461087090610e64565b80601f016020809104026020016040519081016040528092919081815260200182805461089c90610e64565b80156108e95780601f106108be576101008083540402835291602001916108e9565b820191906000526020600020905b8154815290600101906020018083116108cc57829003601f168201915b50505050509550600680546108fd90610e64565b80601f016020809104026020016040519081016040528092919081815260200182805461092990610e64565b80156109765780601f1061094b57610100808354040283529160200191610976565b820191906000526020600020905b81548152906001019060200180831161095957829003601f168201915b505050505094506004549350600760009054906101000a900460ff1692506003549150600154905090919293949596565b600060028060028111156109be576109bd610d26565b5b600760009054906101000a900460ff1660028111156109e0576109df610d26565b5b146109ea57600080fd5b60006003549050600060038190555060008054906101000a900473ffffffffffffffffffffffffffffffffffffffff1673ffffffffffffffffffffffffffffffffffffffff166108fc829081150290604051600060405180830381858888f1935050505015610ab4577f2f256415efc8561af8db667cb242964b19be7380f379ccdafaa0e54a6f6b706960008054906101000a900473ffffffffffffffffffffffffffffffffffffffff16604051610aa29190610f3a565b60405180910390a16001925050610aec565b806003819055506001600760006101000a81548160ff02191690836002811115610ae157610ae0610d26565b5b021790555060009250505b5090565b600082821115610b0357610b02610f55565b5b8183610b0f9190610fb3565b905092915050565b60008183610b259190610fe7565b905082811015610b3857610b37610f55565b5b92915050565b600073ffffffffffffffffffffffffffffffffffffffff82169050919050565b6000610b6982610b3e565b9050919050565b610b7981610b5e565b82525050565b6000602082019050610b946000830184610b70565b92915050565b6000819050919050565b610bad81610b9a565b82525050565b6000602082019050610bc86000830184610ba4565b92915050565b600080fd5b6000610bde82610b3e565b9050919050565b610bee81610bd3565b8114610bf957600080fd5b50565b600081359050610c0b81610be5565b92915050565b600060208284031215610c2757610c26610bce565b5b6000610c3584828501610bfc565b91505092915050565b600081519050919050565b600082825260208201905092915050565b60005b83811015610c78578082015181840152602081019050610c5d565b60008484015250505050565b6000601f19601f8301169050919050565b6000610ca082610c3e565b610caa8185610c49565b9350610cba818560208601610c5a565b610cc381610c84565b840191505092915050565b60006020820190508181036000830152610ce88184610c95565b905092915050565b60008115159050919050565b610d0581610cf0565b82525050565b6000602082019050610d206000830184610cfc565b92915050565b7f4e487b7100000000000000000000000000000000000000000000000000000000600052602160045260246000fd5b60038110610d6657610d65610d26565b5b50565b6000819050610d7782610d55565b919050565b6000610d8782610d69565b9050919050565b610d9781610d7c565b82525050565b6000602082019050610db26000830184610d8e565b92915050565b600060e082019050610dcd600083018a610b70565b8181036020830152610ddf8189610c95565b90508181036040830152610df38188610c95565b9050610e026060830187610ba4565b610e0f6080830186610d8e565b610e1c60a0830185610ba4565b610e2960c0830184610ba4565b98975050505050505050565b7f4e487b7100000000000000000000000000000000000000000000000000000000600052602260045260246000fd5b60006002820490506001821680610e7c57607f821691505b602082108103610e8f57610e8e610e35565b5b50919050565b610e9e81610bd3565b82525050565b6000606082019050610eb96000830186610e95565b610ec66020830185610ba4565b610ed36040830184610ba4565b949350505050565b6000819050919050565b6000610f00610efb610ef684610b3e565b610edb565b610b3e565b9050919050565b6000610f1282610ee5565b9050919050565b6000610f2482610f07565b9050919050565b610f3481610f19565b82525050565b6000602082019050610f4f6000830184610f2b565b92915050565b7f4e487b7100000000000000000000000000000000000000000000000000000000600052600160045260246000fd5b7f4e487b7100000000000000000000000000000000000000000000000000000000600052601160045260246000fd5b6000610fbe82610b9a565b9150610fc983610b9a565b9250828203905081811115610fe157610fe0610f84565b5b92915050565b6000610ff282610b9a565b9150610ffd83610b9a565b925082820190508082111561101557611014610f84565b5b9291505056fea2646970667358221220a79bd8ca01902990061f41069581a4702a910b77ce9f9580492bf3ed9a8ed38064736f6c63430008180033a264697066735822122072a6a5b243fde1f9a46a6cc990ce0bc508cdd0afe3387a4b805eb1544213b90764736f6c63430008180033",
  "linkReferences": {},
  "deployedLinkReferences": {}
}