{
  "_format": "hh-sol-artifact-1",
  "contractName": "CToken",
  "sourceName": "contracts/CToken.sol",
  "abi": [
    {
      "inputs": [
        {
          "internalType": "string",
          "name": "name",
          "type": "string"
        },
        {
          "internalType": "string",
          "name": "symbol",
          "type": "string"
        },
        {
          "internalType": "uint8",
          "name": "decimals",
          "type": "uint8"
        },
        {
          "internalType": "uint256",
          "name": "initial_supply",
          "type": "uint256"
        }
      ],
      "stateMutability": "nonpayable",
      "type": "constructor"
    },
    {
      "anonymous": false,
      "inputs": [
        {
          "indexed": true,
          "internalType": "address",
          "name": "owner",
          "type": "address"
        },
        {
          "indexed": true,
          "internalType": "address",
          "name": "spender",
          "type": "address"
        },
        {
          "indexed": false,
          "internalType": "uint256",
          "name": "value",
          "type": "uint256"
        }
      ],
      "name": "Approval",
      "type": "event"
    },
    {
      "anonymous": false,
      "inputs": [
        {
          "indexed": false,
          "internalType": "address",
          "name": "account",
          "type": "address"
        }
      ],
      "name": "Paused",
      "type": "event"
    },
    {
      "anonymous": false,
      "inputs": [
        {
          "indexed": true,
          "internalType": "bytes32",
          "name": "role",
          "type": "bytes32"
        },
        {
          "indexed": true,
          "internalType": "bytes32",
          "name": "previousAdminRole",
          "type": "bytes32"
        },
        {
          "indexed": true,
          "internalType": "bytes32",
          "name": "newAdminRole",
          "type": "bytes32"
        }
      ],
      "name": "RoleAdminChanged",
      "type": "event"
    },
    {
      "anonymous": false,
      "inputs": [
        {
          "indexed": true,
          "internalType": "bytes32",
          "name": "role",
          "type": "bytes32"
        },
        {
          "indexed": true,
          "internalType": "address",
          "name": "account",
          "type": "address"
        },
        {
          "indexed": true,
          "internalType": "address",
          "name": "sender",
          "type": "address"
        }
      ],
      "name": "RoleGranted",
      "type": "event"
    },
    {
      "anonymous": false,
      "inputs": [
        {
          "indexed": true,
          "internalType": "bytes32",
          "name": "role",
          "type": "bytes32"
        },
        {
          "indexed": true,
          "internalType": "address",
          "name": "account",
          "type": "address"
        },
        {
          "indexed": true,
          "internalType": "address",
          "name": "sender",
          "type": "address"
        }
      ],
      "name": "RoleRevoked",
      "type": "event"
    },
    {
      "anonymous": false,
      "inputs": [
        {
          "indexed": true,
          "internalType": "address",
          "name": "from",
          "type": "address"
        },
        {
          "indexed": true,
          "internalType": "address",
          "name": "to",
          "type": "address"
        },
        {
          "indexed": false,
          "internalType": "uint256",
          "name": "value",
          "type": "uint256"
        }
      ],
      "name": "Transfer",
      "type": "event"
    },
    {
      "anonymous": false,
      "inputs": [
        {
          "indexed": false,
          "internalType": "address",
          "name": "account",
          "type": "address"
        }
      ],
      "name": "Unpaused",
      "type": "event"
    },
    {
      "inputs": [],
      "name": "DEFAULT_ADMIN_ROLE",
      "outputs": [
        {
          "internalType": "bytes32",
          "name": "",
          "type": "bytes32"
        }
      ],
      "stateMutability": "view",
      "type": "function"
    },
    {
      "inputs": [],
      "name": "INITIAL_SUPPLY",
      "outputs": [
        {
          "internalType": "uint256",
          "name": "",
          "type": "uint256"
        }
      ],
      "stateMutability": "view",
      "type": "function"
    },
    {
      "inputs": [],
      "name": "MINTER_ROLE",
      "outputs": [
        {
          "internalType": "bytes32",
          "name": "",
          "type": "bytes32"
        }
      ],
      "stateMutability": "view",
      "type": "function"
    },
    {
      "inputs": [],
      "name": "PAUSER_ROLE",
      "outputs": [
        {
          "internalType": "bytes32",
          "name": "",
          "type": "bytes32"
        }
      ],
      "stateMutability": "view",
      "type": "function"
    },
    {
      "inputs": [
        {
          "internalType": "address",
          "name": "owner",
          "type": "address"
        },
        {
          "internalType": "address",
          "name": "spender",
          "type": "address"
        }
      ],
      "name": "allowance",
      "outputs": [
        {
          "internalType": "uint256",
          "name": "",
          "type": "uint256"
        }
      ],
      "stateMutability": "view",
      "type": "function"
    },
    {
      "inputs": [
        {
          "internalType": "address",
          "name": "spender",
          "type": "address"
        },
        {
          "internalType": "uint256",
          "name": "amount",
          "type": "uint256"
        }
      ],
      "name": "approve",
      "outputs": [
        {
          "internalType": "bool",
          "name": "",
          "type": "bool"
        }
      ],
      "stateMutability": "nonpayable",
      "type": "function"
    },
    {
      "inputs": [
        {
          "internalType": "address",
          "name": "account",
          "type": "address"
        }
      ],
      "name": "balanceOf",
      "outputs": [
        {
          "internalType": "uint256",
          "name": "",
          "type": "uint256"
        }
      ],
      "stateMutability": "view",
      "type": "function"
    },
    {
      "inputs": [
        {
          "internalType": "uint256",
          "name": "amount",
          "type": "uint256"
        }
      ],
      "name": "burn",
      "outputs": [],
      "stateMutability": "nonpayable",
      "type": "function"
    },
    {
      "inputs": [
        {
          "internalType": "address",
          "name": "account",
          "type": "address"
        },
        {
          "internalType": "uint256",
          "name": "amount",
          "type": "uint256"
        }
      ],
      "name": "burnFrom",
      "outputs": [],
      "stateMutability": "nonpayable",
      "type": "function"
    },
    {
      "inputs": [],
      "name": "decimals",
      "outputs": [
        {
          "internalType": "uint8",
          "name": "",
          "type": "uint8"
        }
      ],
      "stateMutability": "view",
      "type": "function"
    },
    {
      "inputs": [
        {
          "internalType": "address",
          "name": "spender",
          "type": "address"
        },
        {
          "internalType": "uint256",
          "name": "subtractedValue",
          "type": "uint256"
        }
      ],
      "name": "decreaseAllowance",
      "outputs": [
        {
          "internalType": "bool",
          "name": "",
          "type": "bool"
        }
      ],
      "stateMutability": "nonpayable",
      "type": "function"
    },
    {
      "inputs": [
        {
          "internalType": "bytes32",
          "name": "role",
          "type": "bytes32"
        }
      ],
      "name": "getRoleAdmin",
      "outputs": [
        {
          "internalType": "bytes32",
          "name": "",
          "type": "bytes32"
        }
      ],
      "stateMutability": "view",
      "type": "function"
    },
    {
      "inputs": [
        {
          "internalType": "bytes32",
          "name": "role",
          "type": "bytes32"
        },
        {
          "internalType": "uint256",
          "name": "index",
          "type": "uint256"
        }
      ],
      "name": "getRoleMember",
      "outputs": [
        {
          "internalType": "address",
          "name": "",
          "type": "address"
        }
      ],
      "stateMutability": "view",
      "type": "function"
    },
    {
      "inputs": [
        {
          "internalType": "bytes32",
          "name": "role",
          "type": "bytes32"
        }
      ],
      "name": "getRoleMemberCount",
      "outputs": [
        {
          "internalType": "uint256",
          "name": "",
          "type": "uint256"
        }
      ],
      "stateMutability": "view",
      "type": "function"
    },
    {
      "inputs": [
        {
          "internalType": "bytes32",
          "name": "role",
          "type": "bytes32"
        },
        {
          "internalType": "address",
          "name": "account",
          "type": "address"
        }
      ],
      "name": "grantRole",
      "outputs": [],
      "stateMutability": "nonpayable",
      "type": "function"
    },
    {
      "inputs": [
        {
          "internalType": "bytes32",
          "name": "role",
          "type": "bytes32"
        },
        {
          "internalType": "address",
          "name": "account",
          "type": "address"
        }
      ],
      "name": "hasRole",
      "outputs": [
        {
          "internalType": "bool",
          "name": "",
          "type": "bool"
        }
      ],
      "stateMutability": "view",
      "type": "function"
    },
    {
      "inputs": [
        {
          "internalType": "address",
          "name": "spender",
          "type": "address"
        },
        {
          "internalType": "uint256",
          "name": "addedValue",
          "type": "uint256"
        }
      ],
      "name": "increaseAllowance",
      "outputs": [
        {
          "internalType": "bool",
          "name": "",
          "type": "bool"
        }
      ],
      "stateMutability": "nonpayable",
      "type": "function"
    },
    {
      "inputs": [
        {
          "internalType": "address",
          "name": "to",
          "type": "address"
        },
        {
          "internalType": "uint256",
          "name": "amount",
          "type": "uint256"
        }
      ],
      "name": "mint",
      "outputs": [],
      "stateMutability": "nonpayable",
      "type": "function"
    },
    {
      "inputs": [],
      "name": "name",
      "outputs": [
        {
          "internalType": "string",
          "name": "",
          "type": "string"
        }
      ],
      "stateMutability": "view",
      "type": "function"
    },
    {
      "inputs": [],
      "name": "pause",
      "outputs": [],
      "stateMutability": "nonpayable",
      "type": "function"
    },
    {
      "inputs": [],
      "name": "paused",
      "outputs": [
        {
          "internalType": "bool",
          "name": "",
          "type": "bool"
        }
      ],
      "stateMutability": "view",
      "type": "function"
    },
    {
      "inputs": [
        {
          "internalType": "bytes32",
          "name": "role",
          "type": "bytes32"
        },
        {
          "internalType": "address",
          "name": "account",
          "type": "address"
        }
      ],
      "name": "renounceRole",
      "outputs": [],
      "stateMutability": "nonpayable",
      "type": "function"
    },
    {
      "inputs": [
        {
          "internalType": "bytes32",
          "name": "role",
          "type": "bytes32"
        },
        {
          "internalType": "address",
          "name": "account",
          "type": "address"
        }
      ],
      "name": "revokeRole",
      "outputs": [],
      "stateMutability": "nonpayable",
      "type": "function"
    },
    {
      "inputs": [
        {
          "internalType": "bytes4",
          "name": "interfaceId",
          "type": "bytes4"
        }
      ],
      "name": "supportsInterface",
      "outputs": [
        {
          "internalType": "bool",
          "name": "",
          "type": "bool"
        }
      ],
      "stateMutability": "view",
      "type": "function"
    },
    {
      "inputs": [],
      "name": "symbol",
      "outputs": [
        {
          "internalType": "string",
          "name": "",
          "type": "string"
        }
      ],
      "stateMutability": "view",
      "type": "function"
    },
    {
      "inputs": [],
      "name": "totalSupply",
      "outputs": [
        {
          "internalType": "uint256",
          "name": "",
          "type": "uint256"
        }
      ],
      "stateMutability": "view",
      "type": "function"
    },
    {
      "inputs": [
        {
          "internalType": "address",
          "name": "recipient",
          "type": "address"
        },
        {
          "internalType": "uint256",
          "name": "amount",
          "type": "uint256"
        }
      ],
      "name": "transfer",
      "outputs": [
        {
          "internalType": "bool",
          "name": "",
          "type": "bool"
        }
      ],
      "stateMutability": "nonpayable",
      "type": "function"
    },
    {
      "inputs": [
        {
          "internalType": "address",
          "name": "sender",
          "type": "address"
        },
        {
          "internalType": "address",
          "name": "recipient",
          "type": "address"
        },
        {
          "internalType": "uint256",
          "name": "amount",
          "type": "uint256"
        }
      ],
      "name": "transferFrom",
      "outputs": [
        {
          "internalType": "bool",
          "name": "",
          "type": "bool"
        }
      ],
      "stateMutability": "nonpayable",
      "type": "function"
    },
    {
      "inputs": [],
      "name": "unpause",
      "outputs": [],
      "stateMutability": "nonpayable",
      "type": "function"
    }
  ],
  "bytecode": "0x60806040526012600a620000149190620007c1565b61271062000023919062000812565b6008553480156200003357600080fd5b506040516200430338038062004303833981810160405281019062000059919062000a5f565b8383818181600590816200006e919062000d50565b50806006908162000080919062000d50565b5050506000600760006101000a81548160ff021916908315150217905550620000c26000801b620000b6620001a460201b60201c565b620001ac60201b60201c565b620001037f9f2df0fed2c77648de5860a4cc508cd0818c85b8b8a1ab4ceeef8d981c8956a6620000f7620001a460201b60201c565b620001ac60201b60201c565b620001447f65d7a28e3265b37a6474929f336521b332c1681b933f6cb9f3376673440d862a62000138620001a460201b60201c565b620001ac60201b60201c565b505081600760016101000a81548160ff021916908360ff1602179055508160ff16600a620001739190620007c1565b8162000180919062000812565b6008819055506200019a33600854620001ea60201b60201c565b5050505062000fbb565b600033905090565b620001be82826200034f60201b60201c565b620001e581600160008581526020019081526020016000206200036560201b90919060201c565b505050565b600073ffffffffffffffffffffffffffffffffffffffff168273ffffffffffffffffffffffffffffffffffffffff16036200025c576040517f08c379a0000000000000000000000000000000000000000000000000000000008152600401620002539062000e98565b60405180910390fd5b62000270600083836200039d60201b60201c565b806004600082825462000284919062000eba565b9250508190555080600260008473ffffffffffffffffffffffffffffffffffffffff1673ffffffffffffffffffffffffffffffffffffffff1681526020019081526020016000206000828254620002dc919062000eba565b925050819055508173ffffffffffffffffffffffffffffffffffffffff16600073ffffffffffffffffffffffffffffffffffffffff167fddf252ad1be2c89b69c2b068fc378daa952ba7f163c4a11628f55a4df523b3ef8360405162000343919062000f06565b60405180910390a35050565b620003618282620003b560201b60201c565b5050565b600062000395836000018373ffffffffffffffffffffffffffffffffffffffff1660001b620004a660201b60201c565b905092915050565b620003b08383836200052060201b60201c565b505050565b620003c782826200058b60201b60201c565b620004a257600160008084815260200190815260200160002060000160008373ffffffffffffffffffffffffffffffffffffffff1673ffffffffffffffffffffffffffffffffffffffff16815260200190815260200160002060006101000a81548160ff02191690831515021790555062000447620001a460201b60201c565b73ffffffffffffffffffffffffffffffffffffffff168173ffffffffffffffffffffffffffffffffffffffff16837f2f8788117e7eff1d82e926ec794901d17c78024a50270940304540a733656f0d60405160405180910390a45b5050565b6000620004ba8383620005f560201b60201c565b620005155782600001829080600181540180825580915050600190039060005260206000200160009091909190915055826000018054905083600101600084815260200190815260200160002081905550600190506200051a565b600090505b92915050565b620005338383836200061860201b60201c565b620005436200061d60201b60201c565b1562000586576040517f08c379a00000000000000000000000000000000000000000000000000000000081526004016200057d9062000f99565b60405180910390fd5b505050565b600080600084815260200190815260200160002060000160008373ffffffffffffffffffffffffffffffffffffffff1673ffffffffffffffffffffffffffffffffffffffff16815260200190815260200160002060009054906101000a900460ff16905092915050565b600080836001016000848152602001908152602001600020541415905092915050565b505050565b6000600760009054906101000a900460ff16905090565b7f4e487b7100000000000000000000000000000000000000000000000000000000600052601160045260246000fd5b60008160011c9050919050565b6000808291508390505b6001851115620006c2578086048111156200069a576200069962000634565b5b6001851615620006aa5780820291505b8081029050620006ba8562000663565b94506200067a565b94509492505050565b600082620006dd5760019050620007b0565b81620006ed5760009050620007b0565b8160018114620007065760028114620007115762000747565b6001915050620007b0565b60ff84111562000726576200072562000634565b5b8360020a91508482111562000740576200073f62000634565b5b50620007b0565b5060208310610133831016604e8410600b8410161715620007815782820a9050838111156200077b576200077a62000634565b5b620007b0565b62000790848484600162000670565b92509050818404811115620007aa57620007a962000634565b5b81810290505b9392505050565b6000819050919050565b6000620007ce82620007b7565b9150620007db83620007b7565b92506200080a7fffffffffffffffffffffffffffffffffffffffffffffffffffffffffffffffff8484620006cb565b905092915050565b60006200081f82620007b7565b91506200082c83620007b7565b92508282026200083c81620007b7565b9150828204841483151762000856576200085562000634565b5b5092915050565b6000604051905090565b600080fd5b600080fd5b600080fd5b600080fd5b6000601f19601f8301169050919050565b7f4e487b7100000000000000000000000000000000000000000000000000000000600052604160045260246000fd5b620008c6826200087b565b810181811067ffffffffffffffff82111715620008e857620008e76200088c565b5b80604052505050565b6000620008fd6200085d565b90506200090b8282620008bb565b919050565b600067ffffffffffffffff8211156200092e576200092d6200088c565b5b62000939826200087b565b9050602081019050919050565b60005b838110156200096657808201518184015260208101905062000949565b60008484015250505050565b600062000989620009838462000910565b620008f1565b905082815260208101848484011115620009a857620009a762000876565b5b620009b584828562000946565b509392505050565b600082601f830112620009d557620009d462000871565b5b8151620009e784826020860162000972565b91505092915050565b600060ff82169050919050565b62000a0881620009f0565b811462000a1457600080fd5b50565b60008151905062000a2881620009fd565b92915050565b62000a3981620007b7565b811462000a4557600080fd5b50565b60008151905062000a598162000a2e565b92915050565b6000806000806080858703121562000a7c5762000a7b62000867565b5b600085015167ffffffffffffffff81111562000a9d5762000a9c6200086c565b5b62000aab87828801620009bd565b945050602085015167ffffffffffffffff81111562000acf5762000ace6200086c565b5b62000add87828801620009bd565b935050604062000af08782880162000a17565b925050606062000b038782880162000a48565b91505092959194509250565b600081519050919050565b7f4e487b7100000000000000000000000000000000000000000000000000000000600052602260045260246000fd5b6000600282049050600182168062000b6257607f821691505b60208210810362000b785762000b7762000b1a565b5b50919050565b60008190508160005260206000209050919050565b60006020601f8301049050919050565b600082821b905092915050565b60006008830262000be27fffffffffffffffffffffffffffffffffffffffffffffffffffffffffffffffff8262000ba3565b62000bee868362000ba3565b95508019841693508086168417925050509392505050565b6000819050919050565b600062000c3162000c2b62000c2584620007b7565b62000c06565b620007b7565b9050919050565b6000819050919050565b62000c4d8362000c10565b62000c6562000c5c8262000c38565b84845462000bb0565b825550505050565b600090565b62000c7c62000c6d565b62000c8981848462000c42565b505050565b5b8181101562000cb15762000ca560008262000c72565b60018101905062000c8f565b5050565b601f82111562000d005762000cca8162000b7e565b62000cd58462000b93565b8101602085101562000ce5578190505b62000cfd62000cf48562000b93565b83018262000c8e565b50505b505050565b600082821c905092915050565b600062000d256000198460080262000d05565b1980831691505092915050565b600062000d40838362000d12565b9150826002028217905092915050565b62000d5b8262000b0f565b67ffffffffffffffff81111562000d775762000d766200088c565b5b62000d83825462000b49565b62000d9082828562000cb5565b600060209050601f83116001811462000dc8576000841562000db3578287015190505b62000dbf858262000d32565b86555062000e2f565b601f19841662000dd88662000b7e565b60005b8281101562000e025784890151825560018201915060208501945060208101905062000ddb565b8683101562000e22578489015162000e1e601f89168262000d12565b8355505b6001600288020188555050505b505050505050565b600082825260208201905092915050565b7f45524332303a206d696e7420746f20746865207a65726f206164647265737300600082015250565b600062000e80601f8362000e37565b915062000e8d8262000e48565b602082019050919050565b6000602082019050818103600083015262000eb38162000e71565b9050919050565b600062000ec782620007b7565b915062000ed483620007b7565b925082820190508082111562000eef5762000eee62000634565b5b92915050565b62000f0081620007b7565b82525050565b600060208201905062000f1d600083018462000ef5565b92915050565b7f45524332305061757361626c653a20746f6b656e207472616e7366657220776860008201527f696c652070617573656400000000000000000000000000000000000000000000602082015250565b600062000f81602a8362000e37565b915062000f8e8262000f23565b604082019050919050565b6000602082019050818103600083015262000fb48162000f72565b9050919050565b6133388062000fcb6000396000f3fe608060405234801561001057600080fd5b50600436106101cf5760003560e01c80635c975abb11610104578063a217fddf116100a2578063d539139311610071578063d539139314610556578063d547741f14610574578063dd62ed3e14610590578063e63ab1e9146105c0576101cf565b8063a217fddf146104a8578063a457c2d7146104c6578063a9059cbb146104f6578063ca15c87314610526576101cf565b80638456cb59116100de5780638456cb59146104205780639010d07c1461042a57806391d148541461045a57806395d89b411461048a576101cf565b80635c975abb146103b657806370a08231146103d457806379cc679014610404576101cf565b80632ff2e9dc11610171578063395093511161014b57806339509351146103445780633f4ba83a1461037457806340c10f191461037e57806342966c681461039a576101cf565b80632ff2e9dc146102ec578063313ce5671461030a57806336568abe14610328576101cf565b806318160ddd116101ad57806318160ddd1461025257806323b872dd14610270578063248a9ca3146102a05780632f2ff15d146102d0576101cf565b806301ffc9a7146101d457806306fdde0314610204578063095ea7b314610222575b600080fd5b6101ee60048036038101906101e99190612159565b6105de565b6040516101fb91906121a1565b60405180910390f35b61020c610658565b604051610219919061224c565b60405180910390f35b61023c60048036038101906102379190612302565b6106ea565b60405161024991906121a1565b60405180910390f35b61025a610708565b6040516102679190612351565b60405180910390f35b61028a6004803603810190610285919061236c565b610712565b60405161029791906121a1565b60405180910390f35b6102ba60048036038101906102b591906123f5565b61080a565b6040516102c79190612431565b60405180910390f35b6102ea60048036038101906102e5919061244c565b610829565b005b6102f461085d565b6040516103019190612351565b60405180910390f35b610312610863565b60405161031f91906124a8565b60405180910390f35b610342600480360381019061033d919061244c565b61087a565b005b61035e60048036038101906103599190612302565b6108ae565b60405161036b91906121a1565b60405180910390f35b61037c61095a565b005b61039860048036038101906103939190612302565b6109d4565b005b6103b460048036038101906103af91906124c3565b610a52565b005b6103be610a66565b6040516103cb91906121a1565b60405180910390f35b6103ee60048036038101906103e991906124f0565b610a7d565b6040516103fb9190612351565b60405180910390f35b61041e60048036038101906104199190612302565b610ac6565b005b610428610b41565b005b610444600480360381019061043f919061251d565b610bbb565b604051610451919061256c565b60405180910390f35b610474600480360381019061046f919061244c565b610bea565b60405161048191906121a1565b60405180910390f35b610492610c54565b60405161049f919061224c565b60405180910390f35b6104b0610ce6565b6040516104bd9190612431565b60405180910390f35b6104e060048036038101906104db9190612302565b610ced565b6040516104ed91906121a1565b60405180910390f35b610510600480360381019061050b9190612302565b610dd8565b60405161051d91906121a1565b60405180910390f35b610540600480360381019061053b91906123f5565b610df6565b60405161054d9190612351565b60405180910390f35b61055e610e1a565b60405161056b9190612431565b60405180910390f35b61058e6004803603810190610589919061244c565b610e3e565b005b6105aa60048036038101906105a59190612587565b610e72565b6040516105b79190612351565b60405180910390f35b6105c8610ef9565b6040516105d59190612431565b60405180910390f35b60007f5a05180f000000000000000000000000000000000000000000000000000000007bffffffffffffffffffffffffffffffffffffffffffffffffffffffff1916827bffffffffffffffffffffffffffffffffffffffffffffffffffffffff19161480610651575061065082610f1d565b5b9050919050565b606060058054610667906125f6565b80601f0160208091040260200160405190810160405280929190818152602001828054610693906125f6565b80156106e05780601f106106b5576101008083540402835291602001916106e0565b820191906000526020600020905b8154815290600101906020018083116106c357829003601f168201915b5050505050905090565b60006106fe6106f7610f97565b8484610f9f565b6001905092915050565b6000600454905090565b600061071f848484611168565b6000600360008673ffffffffffffffffffffffffffffffffffffffff1673ffffffffffffffffffffffffffffffffffffffff168152602001908152602001600020600061076a610f97565b73ffffffffffffffffffffffffffffffffffffffff1673ffffffffffffffffffffffffffffffffffffffff168152602001908152602001600020549050828110156107ea576040517f08c379a00000000000000000000000000000000000000000000000000000000081526004016107e190612699565b60405180910390fd5b6107fe856107f6610f97565b858403610f9f565b60019150509392505050565b6000806000838152602001908152602001600020600101549050919050565b61083382826113df565b610858816001600085815260200190815260200160002061140890919063ffffffff16565b505050565b60085481565b6000600760019054906101000a900460ff16905090565b6108848282611438565b6108a981600160008581526020019081526020016000206114bb90919063ffffffff16565b505050565b60006109506108bb610f97565b8484600360006108c9610f97565b73ffffffffffffffffffffffffffffffffffffffff1673ffffffffffffffffffffffffffffffffffffffff16815260200190815260200160002060008873ffffffffffffffffffffffffffffffffffffffff1673ffffffffffffffffffffffffffffffffffffffff1681526020019081526020016000205461094b91906126e8565b610f9f565b6001905092915050565b61098b7f65d7a28e3265b37a6474929f336521b332c1681b933f6cb9f3376673440d862a610986610f97565b610bea565b6109ca576040517f08c379a00000000000000000000000000000000000000000000000000000000081526004016109c19061278e565b60405180910390fd5b6109d26114eb565b565b610a057f9f2df0fed2c77648de5860a4cc508cd0818c85b8b8a1ab4ceeef8d981c8956a6610a00610f97565b610bea565b610a44576040517f08c379a0000000000000000000000000000000000000000000000000000000008152600401610a3b90612820565b60405180910390fd5b610a4e828261158d565b5050565b610a63610a5d610f97565b826116e1565b50565b6000600760009054906101000a900460ff16905090565b6000600260008373ffffffffffffffffffffffffffffffffffffffff1673ffffffffffffffffffffffffffffffffffffffff168152602001908152602001600020549050919050565b6000610ad983610ad4610f97565b610e72565b905081811015610b1e576040517f08c379a0000000000000000000000000000000000000000000000000000000008152600401610b15906128b2565b60405180910390fd5b610b3283610b2a610f97565b848403610f9f565b610b3c83836116e1565b505050565b610b727f65d7a28e3265b37a6474929f336521b332c1681b933f6cb9f3376673440d862a610b6d610f97565b610bea565b610bb1576040517f08c379a0000000000000000000000000000000000000000000000000000000008152600401610ba890612944565b60405180910390fd5b610bb96118ad565b565b6000610be2826001600086815260200190815260200160002061195090919063ffffffff16565b905092915050565b600080600084815260200190815260200160002060000160008373ffffffffffffffffffffffffffffffffffffffff1673ffffffffffffffffffffffffffffffffffffffff16815260200190815260200160002060009054906101000a900460ff16905092915050565b606060068054610c63906125f6565b80601f0160208091040260200160405190810160405280929190818152602001828054610c8f906125f6565b8015610cdc5780601f10610cb157610100808354040283529160200191610cdc565b820191906000526020600020905b815481529060010190602001808311610cbf57829003601f168201915b5050505050905090565b6000801b81565b60008060036000610cfc610f97565b73ffffffffffffffffffffffffffffffffffffffff1673ffffffffffffffffffffffffffffffffffffffff16815260200190815260200160002060008573ffffffffffffffffffffffffffffffffffffffff1673ffffffffffffffffffffffffffffffffffffffff16815260200190815260200160002054905082811015610db9576040517f08c379a0000000000000000000000000000000000000000000000000000000008152600401610db0906129d6565b60405180910390fd5b610dcd610dc4610f97565b85858403610f9f565b600191505092915050565b6000610dec610de5610f97565b8484611168565b6001905092915050565b6000610e136001600084815260200190815260200160002061196a565b9050919050565b7f9f2df0fed2c77648de5860a4cc508cd0818c85b8b8a1ab4ceeef8d981c8956a681565b610e48828261197f565b610e6d81600160008581526020019081526020016000206114bb90919063ffffffff16565b505050565b6000600360008473ffffffffffffffffffffffffffffffffffffffff1673ffffffffffffffffffffffffffffffffffffffff16815260200190815260200160002060008373ffffffffffffffffffffffffffffffffffffffff1673ffffffffffffffffffffffffffffffffffffffff16815260200190815260200160002054905092915050565b7f65d7a28e3265b37a6474929f336521b332c1681b933f6cb9f3376673440d862a81565b60007f7965db0b000000000000000000000000000000000000000000000000000000007bffffffffffffffffffffffffffffffffffffffffffffffffffffffff1916827bffffffffffffffffffffffffffffffffffffffffffffffffffffffff19161480610f905750610f8f826119a8565b5b9050919050565b600033905090565b600073ffffffffffffffffffffffffffffffffffffffff168373ffffffffffffffffffffffffffffffffffffffff160361100e576040517f08c379a000000000000000000000000000000000000000000000000000000000815260040161100590612a68565b60405180910390fd5b600073ffffffffffffffffffffffffffffffffffffffff168273ffffffffffffffffffffffffffffffffffffffff160361107d576040517f08c379a000000000000000000000000000000000000000000000000000000000815260040161107490612afa565b60405180910390fd5b80600360008573ffffffffffffffffffffffffffffffffffffffff1673ffffffffffffffffffffffffffffffffffffffff16815260200190815260200160002060008473ffffffffffffffffffffffffffffffffffffffff1673ffffffffffffffffffffffffffffffffffffffff168152602001908152602001600020819055508173ffffffffffffffffffffffffffffffffffffffff168373ffffffffffffffffffffffffffffffffffffffff167f8c5be1e5ebec7d5bd14f71427d1e84f3dd0314c0f7b2291e5b200ac8c7c3b9258360405161115b9190612351565b60405180910390a3505050565b600073ffffffffffffffffffffffffffffffffffffffff168373ffffffffffffffffffffffffffffffffffffffff16036111d7576040517f08c379a00000000000000000000000000000000000000000000000000000000081526004016111ce90612b8c565b60405180910390fd5b600073ffffffffffffffffffffffffffffffffffffffff168273ffffffffffffffffffffffffffffffffffffffff1603611246576040517f08c379a000000000000000000000000000000000000000000000000000000000815260040161123d90612c1e565b60405180910390fd5b611251838383611a12565b6000600260008573ffffffffffffffffffffffffffffffffffffffff1673ffffffffffffffffffffffffffffffffffffffff168152602001908152602001600020549050818110156112d8576040517f08c379a00000000000000000000000000000000000000000000000000000000081526004016112cf90612cb0565b60405180910390fd5b818103600260008673ffffffffffffffffffffffffffffffffffffffff1673ffffffffffffffffffffffffffffffffffffffff1681526020019081526020016000208190555081600260008573ffffffffffffffffffffffffffffffffffffffff1673ffffffffffffffffffffffffffffffffffffffff168152602001908152602001600020600082825461136d91906126e8565b925050819055508273ffffffffffffffffffffffffffffffffffffffff168473ffffffffffffffffffffffffffffffffffffffff167fddf252ad1be2c89b69c2b068fc378daa952ba7f163c4a11628f55a4df523b3ef846040516113d19190612351565b60405180910390a350505050565b6113e88261080a565b6113f9816113f4610f97565b611a22565b6114038383611abf565b505050565b6000611430836000018373ffffffffffffffffffffffffffffffffffffffff1660001b611b9f565b905092915050565b611440610f97565b73ffffffffffffffffffffffffffffffffffffffff168173ffffffffffffffffffffffffffffffffffffffff16146114ad576040517f08c379a00000000000000000000000000000000000000000000000000000000081526004016114a490612d42565b60405180910390fd5b6114b78282611c0f565b5050565b60006114e3836000018373ffffffffffffffffffffffffffffffffffffffff1660001b611cf0565b905092915050565b6114f3610a66565b611532576040517f08c379a000000000000000000000000000000000000000000000000000000000815260040161152990612dae565b60405180910390fd5b6000600760006101000a81548160ff0219169083151502179055507f5db9ee0a495bf2e6ff9c91a7834c1ba4fdd244a5e8aa4e537bd38aeae4b073aa611576610f97565b604051611583919061256c565b60405180910390a1565b600073ffffffffffffffffffffffffffffffffffffffff168273ffffffffffffffffffffffffffffffffffffffff16036115fc576040517f08c379a00000000000000000000000000000000000000000000000000000000081526004016115f390612e1a565b60405180910390fd5b61160860008383611a12565b806004600082825461161a91906126e8565b9250508190555080600260008473ffffffffffffffffffffffffffffffffffffffff1673ffffffffffffffffffffffffffffffffffffffff168152602001908152602001600020600082825461167091906126e8565b925050819055508173ffffffffffffffffffffffffffffffffffffffff16600073ffffffffffffffffffffffffffffffffffffffff167fddf252ad1be2c89b69c2b068fc378daa952ba7f163c4a11628f55a4df523b3ef836040516116d59190612351565b60405180910390a35050565b600073ffffffffffffffffffffffffffffffffffffffff168273ffffffffffffffffffffffffffffffffffffffff1603611750576040517f08c379a000000000000000000000000000000000000000000000000000000000815260040161174790612eac565b60405180910390fd5b61175c82600083611a12565b6000600260008473ffffffffffffffffffffffffffffffffffffffff1673ffffffffffffffffffffffffffffffffffffffff168152602001908152602001600020549050818110156117e3576040517f08c379a00000000000000000000000000000000000000000000000000000000081526004016117da90612f3e565b60405180910390fd5b818103600260008573ffffffffffffffffffffffffffffffffffffffff1673ffffffffffffffffffffffffffffffffffffffff16815260200190815260200160002081905550816004600082825461183b9190612f5e565b92505081905550600073ffffffffffffffffffffffffffffffffffffffff168373ffffffffffffffffffffffffffffffffffffffff167fddf252ad1be2c89b69c2b068fc378daa952ba7f163c4a11628f55a4df523b3ef846040516118a09190612351565b60405180910390a3505050565b6118b5610a66565b156118f5576040517f08c379a00000000000000000000000000000000000000000000000000000000081526004016118ec90612fde565b60405180910390fd5b6001600760006101000a81548160ff0219169083151502179055507f62e78cea01bee320cd4e420270b5ea74000d11b0c9f74754ebdbfc544b05a258611939610f97565b604051611946919061256c565b60405180910390a1565b600061195f8360000183611e04565b60001c905092915050565b600061197882600001611e2f565b9050919050565b6119888261080a565b61199981611994610f97565b611a22565b6119a38383611c0f565b505050565b60007f01ffc9a7000000000000000000000000000000000000000000000000000000007bffffffffffffffffffffffffffffffffffffffffffffffffffffffff1916827bffffffffffffffffffffffffffffffffffffffffffffffffffffffff1916149050919050565b611a1d838383611e40565b505050565b611a2c8282610bea565b611abb57611a518173ffffffffffffffffffffffffffffffffffffffff166014611e98565b611a5f8360001c6020611e98565b604051602001611a709291906130d2565b6040516020818303038152906040526040517f08c379a0000000000000000000000000000000000000000000000000000000008152600401611ab2919061224c565b60405180910390fd5b5050565b611ac98282610bea565b611b9b57600160008084815260200190815260200160002060000160008373ffffffffffffffffffffffffffffffffffffffff1673ffffffffffffffffffffffffffffffffffffffff16815260200190815260200160002060006101000a81548160ff021916908315150217905550611b40610f97565b73ffffffffffffffffffffffffffffffffffffffff168173ffffffffffffffffffffffffffffffffffffffff16837f2f8788117e7eff1d82e926ec794901d17c78024a50270940304540a733656f0d60405160405180910390a45b5050565b6000611bab83836120d4565b611c04578260000182908060018154018082558091505060019003906000526020600020016000909190919091505582600001805490508360010160008481526020019081526020016000208190555060019050611c09565b600090505b92915050565b611c198282610bea565b15611cec57600080600084815260200190815260200160002060000160008373ffffffffffffffffffffffffffffffffffffffff1673ffffffffffffffffffffffffffffffffffffffff16815260200190815260200160002060006101000a81548160ff021916908315150217905550611c91610f97565b73ffffffffffffffffffffffffffffffffffffffff168173ffffffffffffffffffffffffffffffffffffffff16837ff6391f5c32d9c69d2a47ea670b442974b53935d1edc7fd64eb21e047a839171b60405160405180910390a45b5050565b60008083600101600084815260200190815260200160002054905060008114611df8576000600182611d229190612f5e565b9050600060018660000180549050611d3a9190612f5e565b9050818114611da9576000866000018281548110611d5b57611d5a61310c565b5b9060005260206000200154905080876000018481548110611d7f57611d7e61310c565b5b90600052602060002001819055508387600101600083815260200190815260200160002081905550505b85600001805480611dbd57611dbc61313b565b5b600190038181906000526020600020016000905590558560010160008681526020019081526020016000206000905560019350505050611dfe565b60009150505b92915050565b6000826000018281548110611e1c57611e1b61310c565b5b9060005260206000200154905092915050565b600081600001805490509050919050565b611e4b8383836120f7565b611e53610a66565b15611e93576040517f08c379a0000000000000000000000000000000000000000000000000000000008152600401611e8a906131dc565b60405180910390fd5b505050565b606060006002836002611eab91906131fc565b611eb591906126e8565b67ffffffffffffffff811115611ece57611ecd61323e565b5b6040519080825280601f01601f191660200182016040528015611f005781602001600182028036833780820191505090505b5090507f300000000000000000000000000000000000000000000000000000000000000081600081518110611f3857611f3761310c565b5b60200101907effffffffffffffffffffffffffffffffffffffffffffffffffffffffffffff1916908160001a9053507f780000000000000000000000000000000000000000000000000000000000000081600181518110611f9c57611f9b61310c565b5b60200101907effffffffffffffffffffffffffffffffffffffffffffffffffffffffffffff1916908160001a90535060006001846002611fdc91906131fc565b611fe691906126e8565b90505b6001811115612086577f3031323334353637383961626364656600000000000000000000000000000000600f8616601081106120285761202761310c565b5b1a60f81b82828151811061203f5761203e61310c565b5b60200101907effffffffffffffffffffffffffffffffffffffffffffffffffffffffffffff1916908160001a905350600485901c94508061207f9061326d565b9050611fe9565b50600084146120ca576040517f08c379a00000000000000000000000000000000000000000000000000000000081526004016120c1906132e2565b60405180910390fd5b8091505092915050565b600080836001016000848152602001908152602001600020541415905092915050565b505050565b600080fd5b60007fffffffff0000000000000000000000000000000000000000000000000000000082169050919050565b61213681612101565b811461214157600080fd5b50565b6000813590506121538161212d565b92915050565b60006020828403121561216f5761216e6120fc565b5b600061217d84828501612144565b91505092915050565b60008115159050919050565b61219b81612186565b82525050565b60006020820190506121b66000830184612192565b92915050565b600081519050919050565b600082825260208201905092915050565b60005b838110156121f65780820151818401526020810190506121db565b60008484015250505050565b6000601f19601f8301169050919050565b600061221e826121bc565b61222881856121c7565b93506122388185602086016121d8565b61224181612202565b840191505092915050565b600060208201905081810360008301526122668184612213565b905092915050565b600073ffffffffffffffffffffffffffffffffffffffff82169050919050565b60006122998261226e565b9050919050565b6122a98161228e565b81146122b457600080fd5b50565b6000813590506122c6816122a0565b92915050565b6000819050919050565b6122df816122cc565b81146122ea57600080fd5b50565b6000813590506122fc816122d6565b92915050565b60008060408385031215612319576123186120fc565b5b6000612327858286016122b7565b9250506020612338858286016122ed565b9150509250929050565b61234b816122cc565b82525050565b60006020820190506123666000830184612342565b92915050565b600080600060608486031215612385576123846120fc565b5b6000612393868287016122b7565b93505060206123a4868287016122b7565b92505060406123b5868287016122ed565b9150509250925092565b6000819050919050565b6123d2816123bf565b81146123dd57600080fd5b50565b6000813590506123ef816123c9565b92915050565b60006020828403121561240b5761240a6120fc565b5b6000612419848285016123e0565b91505092915050565b61242b816123bf565b82525050565b60006020820190506124466000830184612422565b92915050565b60008060408385031215612463576124626120fc565b5b6000612471858286016123e0565b9250506020612482858286016122b7565b9150509250929050565b600060ff82169050919050565b6124a28161248c565b82525050565b60006020820190506124bd6000830184612499565b92915050565b6000602082840312156124d9576124d86120fc565b5b60006124e7848285016122ed565b91505092915050565b600060208284031215612506576125056120fc565b5b6000612514848285016122b7565b91505092915050565b60008060408385031215612534576125336120fc565b5b6000612542858286016123e0565b9250506020612553858286016122ed565b9150509250929050565b6125668161228e565b82525050565b6000602082019050612581600083018461255d565b92915050565b6000806040838503121561259e5761259d6120fc565b5b60006125ac858286016122b7565b92505060206125bd858286016122b7565b9150509250929050565b7f4e487b7100000000000000000000000000000000000000000000000000000000600052602260045260246000fd5b6000600282049050600182168061260e57607f821691505b602082108103612621576126206125c7565b5b50919050565b7f45524332303a207472616e7366657220616d6f756e742065786365656473206160008201527f6c6c6f77616e6365000000000000000000000000000000000000000000000000602082015250565b60006126836028836121c7565b915061268e82612627565b604082019050919050565b600060208201905081810360008301526126b281612676565b9050919050565b7f4e487b7100000000000000000000000000000000000000000000000000000000600052601160045260246000fd5b60006126f3826122cc565b91506126fe836122cc565b9250828201905080821115612716576127156126b9565b5b92915050565b7f45524332305072657365744d696e7465725061757365723a206d75737420686160008201527f76652070617573657220726f6c6520746f20756e706175736500000000000000602082015250565b60006127786039836121c7565b91506127838261271c565b604082019050919050565b600060208201905081810360008301526127a78161276b565b9050919050565b7f45524332305072657365744d696e7465725061757365723a206d75737420686160008201527f7665206d696e74657220726f6c6520746f206d696e7400000000000000000000602082015250565b600061280a6036836121c7565b9150612815826127ae565b604082019050919050565b60006020820190508181036000830152612839816127fd565b9050919050565b7f45524332303a206275726e20616d6f756e74206578636565647320616c6c6f7760008201527f616e636500000000000000000000000000000000000000000000000000000000602082015250565b600061289c6024836121c7565b91506128a782612840565b604082019050919050565b600060208201905081810360008301526128cb8161288f565b9050919050565b7f45524332305072657365744d696e7465725061757365723a206d75737420686160008201527f76652070617573657220726f6c6520746f207061757365000000000000000000602082015250565b600061292e6037836121c7565b9150612939826128d2565b604082019050919050565b6000602082019050818103600083015261295d81612921565b9050919050565b7f45524332303a2064656372656173656420616c6c6f77616e63652062656c6f7760008201527f207a65726f000000000000000000000000000000000000000000000000000000602082015250565b60006129c06025836121c7565b91506129cb82612964565b604082019050919050565b600060208201905081810360008301526129ef816129b3565b9050919050565b7f45524332303a20617070726f76652066726f6d20746865207a65726f2061646460008201527f7265737300000000000000000000000000000000000000000000000000000000602082015250565b6000612a526024836121c7565b9150612a5d826129f6565b604082019050919050565b60006020820190508181036000830152612a8181612a45565b9050919050565b7f45524332303a20617070726f766520746f20746865207a65726f20616464726560008201527f7373000000000000000000000000000000000000000000000000000000000000602082015250565b6000612ae46022836121c7565b9150612aef82612a88565b604082019050919050565b60006020820190508181036000830152612b1381612ad7565b9050919050565b7f45524332303a207472616e736665722066726f6d20746865207a65726f20616460008201527f6472657373000000000000000000000000000000000000000000000000000000602082015250565b6000612b766025836121c7565b9150612b8182612b1a565b604082019050919050565b60006020820190508181036000830152612ba581612b69565b9050919050565b7f45524332303a207472616e7366657220746f20746865207a65726f206164647260008201527f6573730000000000000000000000000000000000000000000000000000000000602082015250565b6000612c086023836121c7565b9150612c1382612bac565b604082019050919050565b60006020820190508181036000830152612c3781612bfb565b9050919050565b7f45524332303a207472616e7366657220616d6f756e742065786365656473206260008201527f616c616e63650000000000000000000000000000000000000000000000000000602082015250565b6000612c9a6026836121c7565b9150612ca582612c3e565b604082019050919050565b60006020820190508181036000830152612cc981612c8d565b9050919050565b7f416363657373436f6e74726f6c3a2063616e206f6e6c792072656e6f756e636560008201527f20726f6c657320666f722073656c660000000000000000000000000000000000602082015250565b6000612d2c602f836121c7565b9150612d3782612cd0565b604082019050919050565b60006020820190508181036000830152612d5b81612d1f565b9050919050565b7f5061757361626c653a206e6f7420706175736564000000000000000000000000600082015250565b6000612d986014836121c7565b9150612da382612d62565b602082019050919050565b60006020820190508181036000830152612dc781612d8b565b9050919050565b7f45524332303a206d696e7420746f20746865207a65726f206164647265737300600082015250565b6000612e04601f836121c7565b9150612e0f82612dce565b602082019050919050565b60006020820190508181036000830152612e3381612df7565b9050919050565b7f45524332303a206275726e2066726f6d20746865207a65726f2061646472657360008201527f7300000000000000000000000000000000000000000000000000000000000000602082015250565b6000612e966021836121c7565b9150612ea182612e3a565b604082019050919050565b60006020820190508181036000830152612ec581612e89565b9050919050565b7f45524332303a206275726e20616d6f756e7420657863656564732062616c616e60008201527f6365000000000000000000000000000000000000000000000000000000000000602082015250565b6000612f286022836121c7565b9150612f3382612ecc565b604082019050919050565b60006020820190508181036000830152612f5781612f1b565b9050919050565b6000612f69826122cc565b9150612f74836122cc565b9250828203905081811115612f8c57612f8b6126b9565b5b92915050565b7f5061757361626c653a2070617573656400000000000000000000000000000000600082015250565b6000612fc86010836121c7565b9150612fd382612f92565b602082019050919050565b60006020820190508181036000830152612ff781612fbb565b9050919050565b600081905092915050565b7f416363657373436f6e74726f6c3a206163636f756e7420000000000000000000600082015250565b600061303f601783612ffe565b915061304a82613009565b601782019050919050565b6000613060826121bc565b61306a8185612ffe565b935061307a8185602086016121d8565b80840191505092915050565b7f206973206d697373696e6720726f6c6520000000000000000000000000000000600082015250565b60006130bc601183612ffe565b91506130c782613086565b601182019050919050565b60006130dd82613032565b91506130e98285613055565b91506130f4826130af565b91506131008284613055565b91508190509392505050565b7f4e487b7100000000000000000000000000000000000000000000000000000000600052603260045260246000fd5b7f4e487b7100000000000000000000000000000000000000000000000000000000600052603160045260246000fd5b7f45524332305061757361626c653a20746f6b656e207472616e7366657220776860008201527f696c652070617573656400000000000000000000000000000000000000000000602082015250565b60006131c6602a836121c7565b91506131d18261316a565b604082019050919050565b600060208201905081810360008301526131f5816131b9565b9050919050565b6000613207826122cc565b9150613212836122cc565b9250828202613220816122cc565b91508282048414831517613237576132366126b9565b5b5092915050565b7f4e487b7100000000000000000000000000000000000000000000000000000000600052604160045260246000fd5b6000613278826122cc565b91506000820361328b5761328a6126b9565b5b600182039050919050565b7f537472696e67733a20686578206c656e67746820696e73756666696369656e74600082015250565b60006132cc6020836121c7565b91506132d782613296565b602082019050919050565b600060208201905081810360008301526132fb816132bf565b905091905056fea264697066735822122043763b329b3b2ed24b72eb86d0129655a2162be642ac41f198e4db037ca38c8b64736f6c63430008180033",
  "linkReferences": {},
  "deployedLinkReferences": {}
}