{
  "_format": "hh-sol-artifact-1",
  "contractName": "MemberVote",
  "sourceName": "contracts/MemberVote.sol",
  "abi": [
    {
      "inputs": [
        {
          "internalType": "uint256",
          "name": "contributionTime",
          "type": "uint256"
        },
        {
          "internalType": "uint256",
          "name": "_voteTime",
          "type": "uint256"
        },
        {
          "internalType": "uint256",
          "name": "_quorum",
          "type": "uint256"
        }
      ],
      "stateMutability": "nonpayable",
      "type": "constructor"
    },
    {
      "inputs": [
        {
          "internalType": "uint256",
          "name": "proposalId",
          "type": "uint256"
        }
      ],
      "name": "approveProposal",
      "outputs": [],
      "stateMutability": "nonpayable",
      "type": "function"
    },
    {
      "inputs": [],
      "name": "availableFunds",
      "outputs": [
        {
          "internalType": "uint256",
          "name": "",
          "type": "uint256"
        }
      ],
      "stateMutability": "view",
      "type": "function"
    },
    {
      "inputs": [],
      "name": "contribute",
      "outputs": [],
      "stateMutability": "payable",
      "type": "function"
    },
    {
      "inputs": [],
      "name": "contributionEnd",
      "outputs": [
        {
          "internalType": "uint256",
          "name": "",
          "type": "uint256"
        }
      ],
      "stateMutability": "view",
      "type": "function"
    },
    {
      "inputs": [
        {
          "internalType": "string",
          "name": "name",
          "type": "string"
        },
        {
          "internalType": "uint256",
          "name": "amount",
          "type": "uint256"
        },
        {
          "internalType": "address payable",
          "name": "recipient",
          "type": "address"
        }
      ],
      "name": "createProposal",
      "outputs": [],
      "stateMutability": "nonpayable",
      "type": "function"
    },
    {
      "inputs": [
        {
          "internalType": "address",
          "name": "",
          "type": "address"
        }
      ],
      "name": "members",
      "outputs": [
        {
          "internalType": "bool",
          "name": "",
          "type": "bool"
        }
      ],
      "stateMutability": "view",
      "type": "function"
    },
    {
      "inputs": [],
      "name": "nextProposalId",
      "outputs": [
        {
          "internalType": "uint256",
          "name": "",
          "type": "uint256"
        }
      ],
      "stateMutability": "view",
      "type": "function"
    },
    {
      "inputs": [],
      "name": "owner",
      "outputs": [
        {
          "internalType": "address",
          "name": "",
          "type": "address"
        }
      ],
      "stateMutability": "view",
      "type": "function"
    },
    {
      "inputs": [
        {
          "internalType": "uint256",
          "name": "",
          "type": "uint256"
        }
      ],
      "name": "proposals",
      "outputs": [
        {
          "internalType": "uint256",
          "name": "id",
          "type": "uint256"
        },
        {
          "internalType": "string",
          "name": "name",
          "type": "string"
        },
        {
          "internalType": "uint256",
          "name": "amount",
          "type": "uint256"
        },
        {
          "internalType": "address payable",
          "name": "recipient",
          "type": "address"
        },
        {
          "internalType": "uint256",
          "name": "votes",
          "type": "uint256"
        },
        {
          "internalType": "uint256",
          "name": "end",
          "type": "uint256"
        },
        {
          "internalType": "bool",
          "name": "approved",
          "type": "bool"
        }
      ],
      "stateMutability": "view",
      "type": "function"
    },
    {
      "inputs": [],
      "name": "quorum",
      "outputs": [
        {
          "internalType": "uint256",
          "name": "",
          "type": "uint256"
        }
      ],
      "stateMutability": "view",
      "type": "function"
    },
    {
      "inputs": [],
      "name": "receive",
      "outputs": [],
      "stateMutability": "payable",
      "type": "function"
    },
    {
      "inputs": [
        {
          "internalType": "uint256",
          "name": "amount",
          "type": "uint256"
        }
      ],
      "name": "redeemShare",
      "outputs": [],
      "stateMutability": "nonpayable",
      "type": "function"
    },
    {
      "inputs": [
        {
          "internalType": "address",
          "name": "newowner",
          "type": "address"
        }
      ],
      "name": "setOwner",
      "outputs": [],
      "stateMutability": "nonpayable",
      "type": "function"
    },
    {
      "inputs": [
        {
          "internalType": "uint256",
          "name": "newquorum",
          "type": "uint256"
        }
      ],
      "name": "setQuorum",
      "outputs": [],
      "stateMutability": "nonpayable",
      "type": "function"
    },
    {
      "inputs": [
        {
          "internalType": "address",
          "name": "",
          "type": "address"
        }
      ],
      "name": "shares",
      "outputs": [
        {
          "internalType": "uint256",
          "name": "",
          "type": "uint256"
        }
      ],
      "stateMutability": "view",
      "type": "function"
    },
    {
      "inputs": [],
      "name": "totalShares",
      "outputs": [
        {
          "internalType": "uint256",
          "name": "",
          "type": "uint256"
        }
      ],
      "stateMutability": "view",
      "type": "function"
    },
    {
      "inputs": [
        {
          "internalType": "uint256",
          "name": "amount",
          "type": "uint256"
        },
        {
          "internalType": "address payable",
          "name": "to",
          "type": "address"
        }
      ],
      "name": "transferShare",
      "outputs": [],
      "stateMutability": "nonpayable",
      "type": "function"
    },
    {
      "inputs": [
        {
          "internalType": "uint256",
          "name": "proposalId",
          "type": "uint256"
        }
      ],
      "name": "vote",
      "outputs": [],
      "stateMutability": "nonpayable",
      "type": "function"
    },
    {
      "inputs": [],
      "name": "voteTime",
      "outputs": [
        {
          "internalType": "uint256",
          "name": "",
          "type": "uint256"
        }
      ],
      "stateMutability": "view",
      "type": "function"
    },
    {
      "inputs": [
        {
          "internalType": "uint256",
          "name": "amount",
          "type": "uint256"
        },
        {
          "internalType": "address payable",
          "name": "to",
          "type": "address"
        }
      ],
      "name": "withdrawEther",
      "outputs": [],
      "stateMutability": "nonpayable",
      "type": "function"
    }
  ],
  "bytecode": "0x60806040523480156200001157600080fd5b506040516200268638038062002686833981810160405281019062000037919062000129565b600181116200007d576040517f08c379a000000000000000000000000000000000000000000000000000000000815260040162000074906200020c565b60405180910390fd5b82426200008b91906200025d565b6007819055508160098190555080600a8190555033600460006101000a81548173ffffffffffffffffffffffffffffffffffffffff021916908373ffffffffffffffffffffffffffffffffffffffff16021790555050505062000298565b600080fd5b6000819050919050565b6200010381620000ee565b81146200010f57600080fd5b50565b6000815190506200012381620000f8565b92915050565b600080600060608486031215620001455762000144620000e9565b5b6000620001558682870162000112565b9350506020620001688682870162000112565b92505060406200017b8682870162000112565b9150509250925092565b600082825260208201905092915050565b7f71756f72756d206d757374206265206d6f7265207468616e2031206d656d626560008201527f7200000000000000000000000000000000000000000000000000000000000000602082015250565b6000620001f460218362000185565b9150620002018262000196565b604082019050919050565b600060208201905081810360008301526200022781620001e5565b9050919050565b7f4e487b7100000000000000000000000000000000000000000000000000000000600052601160045260246000fd5b60006200026a82620000ee565b91506200027783620000ee565b92508282019050808211156200029257620002916200022e565b5b92915050565b6123de80620002a86000396000f3fe60806040526004361061011f5760003560e01c8063868643df116100a0578063c1ba4e5911610064578063c1ba4e59146103a6578063ce56c454146103cf578063ce7c2ac2146103f8578063d151b51614610435578063d7bb99ba146104605761011f565b8063868643df146102f45780638da5cb5b1461031d57806398951b5614610348578063a3e76c0f14610371578063bcf93dd61461037b5761011f565b80631703a018116100e75780631703a0181461021f5780632ab09d141461024a5780633a98ef391461027557806346fcff4c146102a05780636ac1e01f146102cb5761011f565b80630121b93f14610124578063013cf08b1461014d578063039383e61461019057806308ae4b0c146101b957806313af4035146101f6575b600080fd5b34801561013057600080fd5b5061014b6004803603810190610146919061147a565b61046a565b005b34801561015957600080fd5b50610174600480360381019061016f919061147a565b6106c4565b60405161018797969594939291906115a2565b60405180910390f35b34801561019c57600080fd5b506101b760048036038101906101b29190611644565b6107bb565b005b3480156101c557600080fd5b506101e060048036038101906101db91906116c2565b610944565b6040516101ed91906116ef565b60405180910390f35b34801561020257600080fd5b5061021d600480360381019061021891906116c2565b610964565b005b34801561022b57600080fd5b50610234610aa7565b604051610241919061170a565b60405180910390f35b34801561025657600080fd5b5061025f610aad565b60405161026c919061170a565b60405180910390f35b34801561028157600080fd5b5061028a610ab3565b604051610297919061170a565b60405180910390f35b3480156102ac57600080fd5b506102b5610ab9565b6040516102c2919061170a565b60405180910390f35b3480156102d757600080fd5b506102f260048036038101906102ed919061178a565b610abf565b005b34801561030057600080fd5b5061031b6004803603810190610316919061147a565b610d11565b005b34801561032957600080fd5b50610332610e91565b60405161033f919061180d565b60405180910390f35b34801561035457600080fd5b5061036f600480360381019061036a919061147a565b610eb7565b005b6103796110b2565b005b34801561038757600080fd5b506103906110cd565b60405161039d919061170a565b60405180910390f35b3480156103b257600080fd5b506103cd60048036038101906103c8919061147a565b6110d3565b005b3480156103db57600080fd5b506103f660048036038101906103f19190611644565b6111b0565b005b34801561040457600080fd5b5061041f600480360381019061041a91906116c2565b61124e565b60405161042c919061170a565b60405180910390f35b34801561044157600080fd5b5061044a611266565b604051610457919061170a565b60405180910390f35b61046861126c565b005b600115156000803373ffffffffffffffffffffffffffffffffffffffff1673ffffffffffffffffffffffffffffffffffffffff16815260200190815260200160002060009054906101000a900460ff161515146104fc576040517f08c379a00000000000000000000000000000000000000000000000000000000081526004016104f390611874565b60405180910390fd5b600060036000838152602001908152602001600020905060001515600260003373ffffffffffffffffffffffffffffffffffffffff1673ffffffffffffffffffffffffffffffffffffffff168152602001908152602001600020600084815260200190815260200160002060009054906101000a900460ff161515146105b7576040517f08c379a00000000000000000000000000000000000000000000000000000000081526004016105ae90611906565b60405180910390fd5b806005015442106105fd576040517f08c379a00000000000000000000000000000000000000000000000000000000081526004016105f490611998565b60405180910390fd5b6001600260003373ffffffffffffffffffffffffffffffffffffffff1673ffffffffffffffffffffffffffffffffffffffff168152602001908152602001600020600084815260200190815260200160002060006101000a81548160ff021916908315150217905550600160003373ffffffffffffffffffffffffffffffffffffffff1673ffffffffffffffffffffffffffffffffffffffff168152602001908152602001600020548160040160008282546106b991906119e7565b925050819055505050565b60036020528060005260406000206000915090508060000154908060010180546106ed90611a4a565b80601f016020809104026020016040519081016040528092919081815260200182805461071990611a4a565b80156107665780601f1061073b57610100808354040283529160200191610766565b820191906000526020600020905b81548152906001019060200180831161074957829003601f168201915b5050505050908060020154908060030160009054906101000a900473ffffffffffffffffffffffffffffffffffffffff16908060040154908060050154908060060160009054906101000a900460ff16905087565b81600160003373ffffffffffffffffffffffffffffffffffffffff1673ffffffffffffffffffffffffffffffffffffffff16815260200190815260200160002054101561083d576040517f08c379a000000000000000000000000000000000000000000000000000000000815260040161083490611ac7565b60405180910390fd5b81600160003373ffffffffffffffffffffffffffffffffffffffff1673ffffffffffffffffffffffffffffffffffffffff168152602001908152602001600020600082825461088c9190611ae7565b9250508190555081600160008373ffffffffffffffffffffffffffffffffffffffff1673ffffffffffffffffffffffffffffffffffffffff16815260200190815260200160002060008282546108e291906119e7565b9250508190555060016000808373ffffffffffffffffffffffffffffffffffffffff1673ffffffffffffffffffffffffffffffffffffffff16815260200190815260200160002060006101000a81548160ff0219169083151502179055505050565b60006020528060005260406000206000915054906101000a900460ff1681565b600460009054906101000a900473ffffffffffffffffffffffffffffffffffffffff1673ffffffffffffffffffffffffffffffffffffffff163373ffffffffffffffffffffffffffffffffffffffff16146109f4576040517f08c379a00000000000000000000000000000000000000000000000000000000081526004016109eb90611b67565b60405180910390fd5b600073ffffffffffffffffffffffffffffffffffffffff168173ffffffffffffffffffffffffffffffffffffffff1603610a63576040517f08c379a0000000000000000000000000000000000000000000000000000000008152600401610a5a90611bd3565b60405180910390fd5b80600460006101000a81548173ffffffffffffffffffffffffffffffffffffffff021916908373ffffffffffffffffffffffffffffffffffffffff16021790555050565b600a5481565b60085481565b60055481565b60065481565b600115156000803373ffffffffffffffffffffffffffffffffffffffff1673ffffffffffffffffffffffffffffffffffffffff16815260200190815260200160002060009054906101000a900460ff16151514610b51576040517f08c379a0000000000000000000000000000000000000000000000000000000008152600401610b4890611874565b60405180910390fd5b816006541015610b96576040517f08c379a0000000000000000000000000000000000000000000000000000000008152600401610b8d90611c3f565b60405180910390fd5b6040518060e00160405280600854815260200185858080601f016020809104026020016040519081016040528093929190818152602001838380828437600081840152601f19601f8201169050808301925050505050505081526020018381526020018273ffffffffffffffffffffffffffffffffffffffff1681526020016000815260200160095442610c2a91906119e7565b815260200160001515815250600360006008548152602001908152602001600020600082015181600001556020820151816001019081610c6a9190611e3a565b506040820151816002015560608201518160030160006101000a81548173ffffffffffffffffffffffffffffffffffffffff021916908373ffffffffffffffffffffffffffffffffffffffff1602179055506080820151816004015560a0820151816005015560c08201518160060160006101000a81548160ff02191690831515021790555090505060086000815480929190610d0690611f0c565b919050555050505050565b80600160003373ffffffffffffffffffffffffffffffffffffffff1673ffffffffffffffffffffffffffffffffffffffff168152602001908152602001600020541015610d93576040517f08c379a0000000000000000000000000000000000000000000000000000000008152600401610d8a90611ac7565b60405180910390fd5b806006541015610dd8576040517f08c379a0000000000000000000000000000000000000000000000000000000008152600401610dcf90611fa0565b60405180910390fd5b80600160003373ffffffffffffffffffffffffffffffffffffffff1673ffffffffffffffffffffffffffffffffffffffff1681526020019081526020016000206000828254610e279190611ae7565b925050819055508060066000828254610e409190611ae7565b925050819055503373ffffffffffffffffffffffffffffffffffffffff166108fc829081150290604051600060405180830381858888f19350505050158015610e8d573d6000803e3d6000fd5b5050565b600460009054906101000a900473ffffffffffffffffffffffffffffffffffffffff1681565b600460009054906101000a900473ffffffffffffffffffffffffffffffffffffffff1673ffffffffffffffffffffffffffffffffffffffff163373ffffffffffffffffffffffffffffffffffffffff1614610f47576040517f08c379a0000000000000000000000000000000000000000000000000000000008152600401610f3e90611b67565b60405180910390fd5b60006003600083815260200190815260200160002090508060050154421015610fa5576040517f08c379a0000000000000000000000000000000000000000000000000000000008152600401610f9c90612032565b60405180910390fd5b600015158160060160009054906101000a900460ff16151514610ffd576040517f08c379a0000000000000000000000000000000000000000000000000000000008152600401610ff4906120c4565b60405180910390fd5b600a546005546064836004015461101491906120e4565b61101e9190612155565b101561105f576040517f08c379a0000000000000000000000000000000000000000000000000000000008152600401611056906121f8565b60405180910390fd5b60018160060160006101000a81548160ff0219169083151502179055506110ae81600201548260030160009054906101000a900473ffffffffffffffffffffffffffffffffffffffff16611391565b5050565b34600660008282546110c491906119e7565b92505081905550565b60095481565b600460009054906101000a900473ffffffffffffffffffffffffffffffffffffffff1673ffffffffffffffffffffffffffffffffffffffff163373ffffffffffffffffffffffffffffffffffffffff1614611163576040517f08c379a000000000000000000000000000000000000000000000000000000000815260040161115a90611b67565b60405180910390fd5b600181116111a6576040517f08c379a000000000000000000000000000000000000000000000000000000000815260040161119d9061228a565b60405180910390fd5b80600a8190555050565b600460009054906101000a900473ffffffffffffffffffffffffffffffffffffffff1673ffffffffffffffffffffffffffffffffffffffff163373ffffffffffffffffffffffffffffffffffffffff1614611240576040517f08c379a000000000000000000000000000000000000000000000000000000000815260040161123790611b67565b60405180910390fd5b61124a8282611391565b5050565b60016020528060005260406000206000915090505481565b60075481565b60075443106112b0576040517f08c379a00000000000000000000000000000000000000000000000000000000081526004016112a79061231c565b60405180910390fd5b60016000803373ffffffffffffffffffffffffffffffffffffffff1673ffffffffffffffffffffffffffffffffffffffff16815260200190815260200160002060006101000a81548160ff02191690831515021790555034600160003373ffffffffffffffffffffffffffffffffffffffff1673ffffffffffffffffffffffffffffffffffffffff168152602001908152602001600020600082825461135691906119e7565b92505081905550346005600082825461136f91906119e7565b92505081905550346006600082825461138891906119e7565b92505081905550565b6006548211156113d6576040517f08c379a00000000000000000000000000000000000000000000000000000000081526004016113cd90612388565b60405180910390fd5b81600660008282546113e89190611ae7565b925050819055508073ffffffffffffffffffffffffffffffffffffffff166108fc839081150290604051600060405180830381858888f19350505050158015611435573d6000803e3d6000fd5b505050565b600080fd5b600080fd5b6000819050919050565b61145781611444565b811461146257600080fd5b50565b6000813590506114748161144e565b92915050565b6000602082840312156114905761148f61143a565b5b600061149e84828501611465565b91505092915050565b6114b081611444565b82525050565b600081519050919050565b600082825260208201905092915050565b60005b838110156114f05780820151818401526020810190506114d5565b60008484015250505050565b6000601f19601f8301169050919050565b6000611518826114b6565b61152281856114c1565b93506115328185602086016114d2565b61153b816114fc565b840191505092915050565b600073ffffffffffffffffffffffffffffffffffffffff82169050919050565b600061157182611546565b9050919050565b61158181611566565b82525050565b60008115159050919050565b61159c81611587565b82525050565b600060e0820190506115b7600083018a6114a7565b81810360208301526115c9818961150d565b90506115d860408301886114a7565b6115e56060830187611578565b6115f260808301866114a7565b6115ff60a08301856114a7565b61160c60c0830184611593565b98975050505050505050565b61162181611566565b811461162c57600080fd5b50565b60008135905061163e81611618565b92915050565b6000806040838503121561165b5761165a61143a565b5b600061166985828601611465565b925050602061167a8582860161162f565b9150509250929050565b600061168f82611546565b9050919050565b61169f81611684565b81146116aa57600080fd5b50565b6000813590506116bc81611696565b92915050565b6000602082840312156116d8576116d761143a565b5b60006116e6848285016116ad565b91505092915050565b60006020820190506117046000830184611593565b92915050565b600060208201905061171f60008301846114a7565b92915050565b600080fd5b600080fd5b600080fd5b60008083601f84011261174a57611749611725565b5b8235905067ffffffffffffffff8111156117675761176661172a565b5b6020830191508360018202830111156117835761178261172f565b5b9250929050565b600080600080606085870312156117a4576117a361143a565b5b600085013567ffffffffffffffff8111156117c2576117c161143f565b5b6117ce87828801611734565b945094505060206117e187828801611465565b92505060406117f28782880161162f565b91505092959194509250565b61180781611684565b82525050565b600060208201905061182260008301846117fe565b92915050565b7f6f6e6c79206d656d626572730000000000000000000000000000000000000000600082015250565b600061185e600c836114c1565b915061186982611828565b602082019050919050565b6000602082019050818103600083015261188d81611851565b9050919050565b7f6d656d626572732063616e206f6e6c7920766f7465206f6e636520666f72206160008201527f2070726f706f73616c0000000000000000000000000000000000000000000000602082015250565b60006118f06029836114c1565b91506118fb82611894565b604082019050919050565b6000602082019050818103600083015261191f816118e3565b9050919050565b7f63616e206f6e6c7920766f746520756e74696c2070726f706f73616c20656e6460008201527f2064617465000000000000000000000000000000000000000000000000000000602082015250565b60006119826025836114c1565b915061198d82611926565b604082019050919050565b600060208201905081810360008301526119b181611975565b9050919050565b7f4e487b7100000000000000000000000000000000000000000000000000000000600052601160045260246000fd5b60006119f282611444565b91506119fd83611444565b9250828201905080821115611a1557611a146119b8565b5b92915050565b7f4e487b7100000000000000000000000000000000000000000000000000000000600052602260045260246000fd5b60006002820490506001821680611a6257607f821691505b602082108103611a7557611a74611a1b565b5b50919050565b7f6e6f7420656e6f75676820736861726573000000000000000000000000000000600082015250565b6000611ab16011836114c1565b9150611abc82611a7b565b602082019050919050565b60006020820190508181036000830152611ae081611aa4565b9050919050565b6000611af282611444565b9150611afd83611444565b9250828203905081811115611b1557611b146119b8565b5b92915050565b7f6f6e6c79206f776e657200000000000000000000000000000000000000000000600082015250565b6000611b51600a836114c1565b9150611b5c82611b1b565b602082019050919050565b60006020820190508181036000830152611b8081611b44565b9050919050565b7f6f776e65722063616e2774206265203000000000000000000000000000000000600082015250565b6000611bbd6010836114c1565b9150611bc882611b87565b602082019050919050565b60006020820190508181036000830152611bec81611bb0565b9050919050565b7f616d6f756e7420746f6f20626967000000000000000000000000000000000000600082015250565b6000611c29600e836114c1565b9150611c3482611bf3565b602082019050919050565b60006020820190508181036000830152611c5881611c1c565b9050919050565b7f4e487b7100000000000000000000000000000000000000000000000000000000600052604160045260246000fd5b60008190508160005260206000209050919050565b60006020601f8301049050919050565b600082821b905092915050565b600060088302611cf07fffffffffffffffffffffffffffffffffffffffffffffffffffffffffffffffff82611cb3565b611cfa8683611cb3565b95508019841693508086168417925050509392505050565b6000819050919050565b6000611d37611d32611d2d84611444565b611d12565b611444565b9050919050565b6000819050919050565b611d5183611d1c565b611d65611d5d82611d3e565b848454611cc0565b825550505050565b600090565b611d7a611d6d565b611d85818484611d48565b505050565b5b81811015611da957611d9e600082611d72565b600181019050611d8b565b5050565b601f821115611dee57611dbf81611c8e565b611dc884611ca3565b81016020851015611dd7578190505b611deb611de385611ca3565b830182611d8a565b50505b505050565b600082821c905092915050565b6000611e1160001984600802611df3565b1980831691505092915050565b6000611e2a8383611e00565b9150826002028217905092915050565b611e43826114b6565b67ffffffffffffffff811115611e5c57611e5b611c5f565b5b611e668254611a4a565b611e71828285611dad565b600060209050601f831160018114611ea45760008415611e92578287015190505b611e9c8582611e1e565b865550611f04565b601f198416611eb286611c8e565b60005b82811015611eda57848901518255600182019150602085019450602081019050611eb5565b86831015611ef75784890151611ef3601f891682611e00565b8355505b6001600288020188555050505b505050505050565b6000611f1782611444565b91507fffffffffffffffffffffffffffffffffffffffffffffffffffffffffffffffff8203611f4957611f486119b8565b5b600182019050919050565b7f6e6f7420656e6f75676820617661696c61626c652066756e6473000000000000600082015250565b6000611f8a601a836114c1565b9150611f9582611f54565b602082019050919050565b60006020820190508181036000830152611fb981611f7d565b9050919050565b7f63616e6e6f7420617070726f76652070726f706f73616c206265666f7265206560008201527f6e64206461746500000000000000000000000000000000000000000000000000602082015250565b600061201c6027836114c1565b915061202782611fc0565b604082019050919050565b6000602082019050818103600083015261204b8161200f565b9050919050565b7f63757272656e742070726f706f73616c20616c726561647920617070726f766560008201527f6400000000000000000000000000000000000000000000000000000000000000602082015250565b60006120ae6021836114c1565b91506120b982612052565b604082019050919050565b600060208201905081810360008301526120dd816120a1565b9050919050565b60006120ef82611444565b91506120fa83611444565b925082820261210881611444565b9150828204841483151761211f5761211e6119b8565b5b5092915050565b7f4e487b7100000000000000000000000000000000000000000000000000000000600052601260045260246000fd5b600061216082611444565b915061216b83611444565b92508261217b5761217a612126565b5b828204905092915050565b7f63616e6e6f7420617070726f76652070726f706f73616c207769746820766f7460008201527f657320232062656c6f772071756f72756d000000000000000000000000000000602082015250565b60006121e26031836114c1565b91506121ed82612186565b604082019050919050565b60006020820190508181036000830152612211816121d5565b9050919050565b7f71756f72756d206d757374206265206d6f7265207468616e2031206d656d626560008201527f7200000000000000000000000000000000000000000000000000000000000000602082015250565b60006122746021836114c1565b915061227f82612218565b604082019050919050565b600060208201905081810360008301526122a381612267565b9050919050565b7f63616e6e6f7420636f6e7472696275746520616674657220636f6e747269627560008201527f74696f6e456e6400000000000000000000000000000000000000000000000000602082015250565b60006123066027836114c1565b9150612311826122aa565b604082019050919050565b60006020820190508181036000830152612335816122f9565b9050919050565b7f6e6f7420656e6f75676820617661696c61626c6546756e647300000000000000600082015250565b60006123726019836114c1565b915061237d8261233c565b602082019050919050565b600060208201905081810360008301526123a181612365565b905091905056fea2646970667358221220f4e33b2f7fb531e7eb0c6be3aee89c62070d67cefb32583fd86ab454f88cda4464736f6c63430008180033",
  "linkReferences": {},
  "deployedLinkReferences": {}
}